{
  "_format": "hh-sol-artifact-1",
  "contractName": "ZombieFactory",
  "sourceName": "contracts/CriptoZombie.sol",
  "abi": [
    {
      "anonymous": false,
      "inputs": [
        {
          "indexed": false,
          "internalType": "uint256",
          "name": "zombieId",
          "type": "uint256"
        },
        {
          "indexed": false,
          "internalType": "string",
          "name": "name",
          "type": "string"
        },
        {
          "indexed": false,
          "internalType": "uint256",
          "name": "dna",
          "type": "uint256"
        }
      ],
      "name": "NewZombie",
      "type": "event"
    },
    {
      "inputs": [
        {
          "internalType": "string",
          "name": "_name",
          "type": "string"
        }
      ],
      "name": "createRandomZombie",
      "outputs": [],
      "stateMutability": "nonpayable",
      "type": "function"
    },
    {
      "inputs": [
        {
          "internalType": "address",
          "name": "",
          "type": "address"
        }
      ],
      "name": "ownerZombieCount",
      "outputs": [
        {
          "internalType": "uint256",
          "name": "",
          "type": "uint256"
        }
      ],
      "stateMutability": "view",
      "type": "function"
    },
    {
      "inputs": [
        {
          "internalType": "uint256",
          "name": "",
          "type": "uint256"
        }
      ],
      "name": "zombieToOwner",
      "outputs": [
        {
          "internalType": "address",
          "name": "",
          "type": "address"
        }
      ],
      "stateMutability": "view",
      "type": "function"
    },
    {
      "inputs": [
        {
          "internalType": "uint256",
          "name": "",
          "type": "uint256"
        }
      ],
      "name": "zombies",
      "outputs": [
        {
          "internalType": "string",
          "name": "name",
          "type": "string"
        },
        {
          "internalType": "uint256",
          "name": "dna",
          "type": "uint256"
        }
      ],
      "stateMutability": "view",
      "type": "function"
    }
  ],
  "bytecode": "0x608080604052346025576010600055662386f26fc1000060015561061c908161002b8239f35b600080fdfe608080604052600436101561001357600080fd5b60003560e01c90816301afd7e1146104d2575080632052465e146103ee578063528b7b8f146103ba57637bff0a011461004b57600080fd5b346103b55760203660031901126103b55760043567ffffffffffffffff81116103b557366023820112156103b55780600401359067ffffffffffffffff821161033857604051916100a6601f8201601f19166020018461057c565b808352602083019136602483830101116103b5578160009260246020930185378401015233600052600460205260406000205461037a576100fb9061010c60206040518093828201958691885192839161059e565b81010301601f19810183528261057c565b5190206001549081156103645706906040516040810181811067ffffffffffffffff82111761033857604052818152602081018381526002546801000000000000000081101561033857806001610166920160025561050d565b92909261034e575180519067ffffffffffffffff82116103385761018a8454610542565b601f81116102f0575b50602090601f83116001146102865760019392916000918361027b575b5050600019600383901b1c191690831b1783555b519101556002546000198101908111610265578060005260036020526040600020336bffffffffffffffffffffffff60a01b82541617905533600052600460205260406000209283549360001985146102655760017f88f026aacbbecc90c18411df4b1185fd8d9be2470f1962f192bf84a27d0704b79501905561025a60405193849384526060602085015260608401906105c1565b9060408301520390a1005b634e487b7160e01b600052601160045260246000fd5b0151905038806101b0565b90601f1983169185600052816000209260005b8181106102d857509160019594929183879593106102bf575b505050811b0183556101c4565b015160001960f88460031b161c191690553880806102b2565b92936020600181928786015181550195019301610299565b846000526020600020601f840160051c8101916020851061032e575b601f0160051c01905b8181106103225750610193565b60008155600101610315565b909150819061030c565b634e487b7160e01b600052604160045260246000fd5b634e487b7160e01b600052600060045260246000fd5b634e487b7160e01b600052601260045260246000fd5b60405162461bcd60e51b81526020600482015260136024820152725961207469656e657320756e207a6f6d62696560681b6044820152606490fd5b600080fd5b346103b55760203660031901126103b5576004356000526003602052602060018060a01b0360406000205416604051908152f35b346103b55760203660031901126103b5576004356002548110156103b5576104159061050d565b506040516000825461042681610542565b80845290600181169081156104ae5750600114610471575b506104679261045183600193038461057c565b01546040519283926040845260408401906105c1565b9060208301520390f35b6000848152602081209092505b818310610494575050810160200161046761043e565b60018160209294939454838588010152019101919061047e565b60ff191660208581019190915291151560051b84019091019150610467905061043e565b346103b55760203660031901126103b5576004356001600160a01b03811691908290036103b557602091600052600482526040600020548152f35b60025481101561052c57600260005260206000209060011b0190600090565b634e487b7160e01b600052603260045260246000fd5b90600182811c92168015610572575b602083101461055c57565b634e487b7160e01b600052602260045260246000fd5b91607f1691610551565b90601f8019910116810190811067ffffffffffffffff82111761033857604052565b60005b8381106105b15750506000910152565b81810151838201526020016105a1565b906020916105da8151809281855285808601910161059e565b601f01601f191601019056fea2646970667358221220b39e44715b9eb03fd76b356319c5e76b758d31b0b46043734ce5422612f2c05c64736f6c634300081c0033",
  "linkReferences": {},
  "deployedLinkReferences": {}
}