{
  "_format": "hh-sol-artifact-1",
  "contractName": "ZombieFactory",
  "sourceName": "contracts/CriptoZombie.sol",
  "abi": [
    {
      "anonymous": false,
      "inputs": [
        {
          "indexed": false,
          "internalType": "uint256",
          "name": "zombieId",
          "type": "uint256"
        },
        {
          "indexed": false,
          "internalType": "string",
          "name": "name",
          "type": "string"
        },
        {
          "indexed": false,
          "internalType": "uint256",
          "name": "dna",
          "type": "uint256"
        }
      ],
      "name": "NewZombie",
      "type": "event"
    },
    {
      "inputs": [
        {
          "internalType": "string",
          "name": "_name",
          "type": "string"
        }
      ],
      "name": "createRandomZombie",
      "outputs": [],
      "stateMutability": "nonpayable",
      "type": "function"
    },
    {
      "inputs": [
        {
          "internalType": "address",
          "name": "",
          "type": "address"
        }
      ],
      "name": "ownerZombieCount",
      "outputs": [
        {
          "internalType": "uint256",
          "name": "",
          "type": "uint256"
        }
      ],
      "stateMutability": "view",
      "type": "function"
    },
    {
      "inputs": [
        {
          "internalType": "uint256",
          "name": "",
          "type": "uint256"
        }
      ],
      "name": "zombieToOwner",
      "outputs": [
        {
          "internalType": "address",
          "name": "",
          "type": "address"
        }
      ],
      "stateMutability": "view",
      "type": "function"
    },
    {
      "inputs": [
        {
          "internalType": "uint256",
          "name": "",
          "type": "uint256"
        }
      ],
      "name": "zombies",
      "outputs": [
        {
          "internalType": "string",
          "name": "name",
          "type": "string"
        },
        {
          "internalType": "uint256",
          "name": "dna",
          "type": "uint256"
        }
      ],
      "stateMutability": "view",
      "type": "function"
    }
  ],
  "bytecode": "0x608080604052346025576010600055662386f26fc100006001556105cd908161002b8239f35b600080fdfe608080604052600436101561001357600080fd5b60003560e01c90816301afd7e114610483575080632052465e1461039f578063528b7b8f1461036b57637bff0a011461004b57600080fd5b346103665760203660031901126103665760043567ffffffffffffffff811161036657366023820112156103665780600401359067ffffffffffffffff821161032457604051916100a6601f8201601f19166020018461052d565b808352602083019036602482850101116103665760208160009260246100e796018537850101526100f860206040518093828201958691885192839161054f565b81010301601f19810183528261052d565b5190206001549081156103505706906040516040810181811067ffffffffffffffff8211176103245760405281815260208101838152600254680100000000000000008110156103245780600161015292016002556104be565b92909261033a575180519067ffffffffffffffff82116103245761017684546104f3565b601f81116102dc575b50602090601f831160011461027257600193929160009183610267575b5050600019600383901b1c191690831b1783555b519101556002546000198101908111610251578060005260036020526040600020336bffffffffffffffffffffffff60a01b82541617905533600052600460205260406000209283549360001985146102515760017f88f026aacbbecc90c18411df4b1185fd8d9be2470f1962f192bf84a27d0704b7950190556102466040519384938452606060208501526060840190610572565b9060408301520390a1005b634e487b7160e01b600052601160045260246000fd5b01519050388061019c565b90601f1983169185600052816000209260005b8181106102c457509160019594929183879593106102ab575b505050811b0183556101b0565b015160001960f88460031b161c1916905538808061029e565b92936020600181928786015181550195019301610285565b846000526020600020601f840160051c8101916020851061031a575b601f0160051c01905b81811061030e575061017f565b60008155600101610301565b90915081906102f8565b634e487b7160e01b600052604160045260246000fd5b634e487b7160e01b600052600060045260246000fd5b634e487b7160e01b600052601260045260246000fd5b600080fd5b34610366576020366003190112610366576004356000526003602052602060018060a01b0360406000205416604051908152f35b3461036657602036600319011261036657600435600254811015610366576103c6906104be565b50604051600082546103d7816104f3565b808452906001811690811561045f5750600114610422575b506104189261040283600193038461052d565b0154604051928392604084526040840190610572565b9060208301520390f35b6000848152602081209092505b81831061044557505081016020016104186103ef565b60018160209294939454838588010152019101919061042f565b60ff191660208581019190915291151560051b8401909101915061041890506103ef565b34610366576020366003190112610366576004356001600160a01b038116919082900361036657602091600052600482526040600020548152f35b6002548110156104dd57600260005260206000209060011b0190600090565b634e487b7160e01b600052603260045260246000fd5b90600182811c92168015610523575b602083101461050d57565b634e487b7160e01b600052602260045260246000fd5b91607f1691610502565b90601f8019910116810190811067ffffffffffffffff82111761032457604052565b60005b8381106105625750506000910152565b8181015183820152602001610552565b9060209161058b8151809281855285808601910161054f565b601f01601f191601019056fea264697066735822122034cc5a9d313141b12e600b3e93ae363971b4f60e35525af80b8a75cf5df52d3364736f6c634300081c0033",
  "linkReferences": {},
  "deployedLinkReferences": {}
}